:100000005BEF00F00000000000EF00F000000000D7
:0A0010000000000000000000F3D71C
:10001C00836A040E0B6E0C0E0C6E330E0D6E0D2ED1
:10002C00FED70C2EFCD70B2EFAD7000000001200C6
:10003C00FF0E836E070E0B6E170E0C6E6A0E0D6E96
:10004C000D2EFED70C2EFCD70B2EFAD70000155018
:08005C00161001E0DDDF1200C7
:10006400836A0A0E0B6E220E0C6EA10E0D6E0D2EFF
:0C007400FED70C2EFCD70B2EFAD7120082
:10008000FF0E836E030E0B6E080E0C6E770E0D6E58
:100090000D2EFED70C2EFCD70B2EFAD715501610AE
:0600A00001E0BCDF1200CC
:1000A6000900F5CFE6FF0006FBE10106F9E11200C3
:1000B600010E936E956A81B048D0ADDF010E156EC4
:1000C600000E166EDADF010E156E000E166EB3DF29
:1000D600156A166AD2DFC3DF010E156E000E166EA4
:1000E600CCDF010E156E000E166EA5DF010E156E25
:1000F600000E166EA0DF156A166ABFDFB0DF010EAE
:10010600156E000E166EB9DF010E156E000E166E18
:1001160092DF010E156E000E166EAFDF156A166AB7
:10012600ACDF9DDF010E156E000E166E84DF010E2C
:10013600156E000E166EA1DF010E156E000E166E00
:100146009CDF156A166A99DFB6D781B2D6D0010E42
:10015600156E000E166E91DF010E156E000E166EF0
:100166008CDF010E156E000E166E65DF010E156E24
:10017600000E166E60DF156A166A5DDF010E156EDB
:10018600000E166E58DF010E156E000E166E53DF4A
:10019600010E156E000E166E4EDF010E156E000E68
:1001A600166E49DF010E156E000E166E44DF010E47
:1001B600156E000E166E61DF010E156E000E166EC0
:1001C6005CDF010E156E000E166E35DF010E156E24
:1001D600000E166E30DF156A166A2DDF010E156EDB
:1001E600000E166E28DF010E156E000E166E23DF4A
:1001F600010E156E000E166E1EDF010E156E000E38
:10020600166E19DF156A166A16DF010E156E000ED8
:10021600166E33DF010E156E000E166E0CDF010E24
:10022600156E000E166E07DF010E156E000E166EA9
:1002360002DF156A166AFFDE010E156E000E166ED7
:10024600FADE010E156E000E166EF5DE010E156E47
:10025600000E166EF0DE010E156E000E166EEBDE4B
:10026600156A166AE8DE010E156E000E166E05DFBB
:10027600010E156E000E166E00DF010E156E000ED5
:10028600166EFBDE010E156E000E166EF6DE010E04
:10029600156E000E166EF1DE010E156E000E166E50
:1002A600CADE010E156E000E166EC5DE010E156E47
:1002B600000E166EC0DE010E156E000E166EBBDE4B
:1002C600156A166AB8DE010E156E000E166ED5DEBC
:1002D600010E156E000E166ED0DE010E156E000EA6
:1002E600166ECBDE010E156E000E166EC6DE010E04
:0E02F600156E000E166EC1DE28D7DDD6FFD7BE
:020000040030CA
:0D000100220F0EFF0080FF0FC00FE00F4028
:00000001FF
