:100000006DEF00F00000000000EF00F000000000C5
:0A0010000000000000000000F3D71C
:10001C00836A1D501E100FE0040E0B6E0C0E0C6E3E
:10002C00330E0D6E0D2EFED70C2EFCD70B2EFAD7E1
:10003C00000000000CD00A0E0B6E220E0C6EA10EEE
:10004C000D6E0D2EFED70C2EFCD70B2EFAD71200F0
:10005C000900F5CFE6FF0006FBE10106F9E112000D
:10006C001B6A1C6AFF0E836E800E1C18006E800EBD
:10007C001A18005C02E119501B5C28E2000E1818DB
:10008C0002E1C80E17180DE1030E0B6E080E0C6E74
:10009C00770E0D6E0D2EFED70C2EFCD70B2EFAD72D
:1000AC000DD0070E0B6E170E0C6E6A0E0D6E0D2E0C
:1000BC00FED70C2EFCD70B2EFAD7000015C01DF066
:0E00CC0016C01EF0A5DF1B4A1C2ACED712005C
:1000DA00010E936E956A81B0A2D0010E156E000EC4
:1000EA00166EC80E176E000E186E010E196E000EEF
:1000FA001A6EB7DF010E156E000E166E580E176EC9
:10010A00020E186E010E196E000E1A6EAADF156A1B
:10011A00166AC80E176E000E186E010E196E000EC2
:10012A001A6E9FDF010E156E000E166EC80E176E40
:10013A00000E186E010E196E000E1A6E92DF010E75
:10014A00156E000E166E580E176E020E186E020EFF
:10015A00196E000E1A6E85DF156A166AC80E176EBA
:10016A00000E186E010E196E000E1A6E7ADF010E5D
:10017A00156E000E166EC80E176E000E186E010E62
:10018A00196E000E1A6E6DDF010E156E000E166ED8
:10019A00580E176E020E186E010E196E000E1A6EA8
:1001AA0060DF010E156E000E166EC80E176E000E79
:1001BA00186E010E196E000E1A6E53DF156A166A52
:1001CA00C80E176E000E186E010E196E000E1A6E0A
:1001DA0048DF010E156E000E166E580E176E020ECF
:1001EA00186E010E196E000E1A6E3BDF010E156EA7
:1001FA00000E166EC80E176E000E186E020E196EDD
:10020A00000E1A6E2EDF156A166AC80E176E000ED9
:10021A00186E010E196E000E1A6E23DF5CD781B2BA
:10022A0000D1010E156E000E166EC80E176E000E66
:10023A00186E020E196E000E1A6E13DF010E156E7D
:10024A00000E166E580E176E020E186E020E196EFA
:10025A00000E1A6E06DF156A166A580E176E020E1F
:10026A00186E010E196E000E1A6EFBDE010E156E67
:10027A00000E166E580E176E020E186E040E196EC8
:10028A00000E1A6EEEDE156A166AC80E176E000E9A
:10029A00186E010E196E000E1A6EE3DE010E156E4F
:1002AA00000E166EC80E176E000E186E020E196E2C
:1002BA00000E1A6ED6DE010E156E000E166E580E60
:1002CA00176E020E186E020E196E000E1A6EC9DE35
:1002DA00156A166A580E176E020E186E010E196EFE
:1002EA00000E1A6EBEDE010E156E000E166E580E48
:1002FA00176E020E186E040E196E000E1A6EB1DE1B
:10030A00156A166A580E176E020E186E010E196ECD
:10031A00000E1A6EA6DE010E156E000E166EC80EBF
:10032A00176E000E186E010E196E000E1A6E99DE07
:10033A00010E156E000E166E580E176E020E186E0E
:10034A00030E196E000E1A6E8CDE156A166A580EA6
:10035A00176E020E186E010E196E000E1A6E81DEED
:10036A00010E156E000E166E580E176E020E186EDE
:10037A00040E196E000E1A6E74DE156A166A580E8D
:10038A00176E020E186E010E196E000E1A6E69DED5
:10039A00010E156E000E166EC80E176E000E186E40
:1003AA00040E196E000E1A6E5CDE156A166AC80E05
:1003BA00176E000E186E010E196E000E1A6E51DEBF
:1003CA00010E156E000E166E580E176E020E186E7E
:1003DA00040E196E000E1A6E44DE156A166A580E5D
:1003EA00176E020E186E010E196E000E1A6E39DEA5
:1003FA00010E156E000E166EC80E176E000E186EE0
:10040A00040E196E000E1A6E2CDE156A166AC80ED4
:10041A00176E000E186E010E196E000E1A6E21DE8E
:06042A00FED659D6FFD7F3
:020000040030CA
:0D000100220F0EFF0181FF0FC00FE00F4026
:00000001FF
