:10000000D1EF01F00000000000EF00F00000000060
:0A0010000000000000000000F3D71C
:06001C00000000001200CC
:100022000F0E0C6E470E0D6E0D2EFED70C2EFCD74A
:06003200000000001200B6
:0A003800210E0D6E0D2EFED71200F2
:100042003EBE02D0839E01D0838E3EBC02D0839CF2
:1000520001D0838C3EBA02D0839A01D0838A3EB803
:1000620002D0839801D0838824B002D0848401D046
:1000720084948482D2DF84923EB602D0839E01D0E1
:10008200838E3EB402D0839C01D0838C3EB202D0D8
:10009200839A01D0838A3EB002D0839801D08388AC
:1000A20024B002D0848401D084948482B6DF849206
:0C00B20024A002D0B5DF01D0BEDF120098
:1000BE00086A096A100E0C6E0134083609360450AF
:1000CE00085E0550D8A0053C095ED8B007D0045094
:1000DE0008260550D8B0053C0926D89000360136C2
:0600EE000C2EEAD71200FF
:0C00F40024903DC03EF0A3DF24801200E9
:100100000FD0800E366E19D0C00E366E16D0940EFB
:10011000366E13D0D40E366E10D0800E366E0DD0E3
:100120003650010AEEE03650020AEEE03650030A7D
:10013000EEE03650040AEEE0F0D73704006E365099
:10014000002600C036F000C03EF07BDF24903A6A03
:100150003A503824E96E000E3920EA6EEE520BE078
:100160003A503824E96E000E3920EA6EEECF3DF0A9
:0A017000C1DF3A2AEDD72480120007
:10017A003A6A050E3A5C0AE23A503824E16E000EF9
:10018A003920E26E200EE66E3A2AF3D73A50382426
:10019A00E16E000E3920E26EE66A3A063A503824D9
:1001AA003B6E000E39203C6E0A0E046E000E056E80
:1001BA0036C000F037C001F07DDF08C000F009C08A
:1001CA0001F0300E00263BC0E1FF3CC0E2FF00C058
:1001DA00E6FF0A0E046E000E056E36C000F037C048
:1001EA0001F068DF00C036F001C037F0000E0118D8
:1001FA0002E1000E001801E102D03A06CFD7120040
:10020A00969296949598959A959C959E84928494A4
:10021A00839E839C839A8398FFDEFEDEFDDE838ABB
:10022A0083888482F6DE8492F7DE8482F2DE849208
:10023A00F3DE8482EEDE8492EFDE83988482E9DE46
:10024A008492EADE8482E5DE8492839A838E8482B3
:10025A00E0DE8492E1DE839E83888482DADE849201
:10026A0083988482D6DE8492D7DE8482D2DE849218
:10027A0083888482CEDE8492CFDE83988482C9DE2C
:10028A008492838E838C838A83888482C2DE84925A
:06029A00C3DE2480120007
:1002A0000900F5CFE6FF0006FBE10106F9E11200C7
:1002B000010E3E6EC6DE010E366E040E376E2CC089
:0A02C00038F02DC039F01CDF1200E9
:1002CA00326A336A2CC034F02DC035F0800E2D18F6
:1002DA00006E800E005C02E1000E2C5C0BE2010E47
:1002EA00326E000E336E2C500008346E2DC035F07D
:1002FA00000E355634C036F035C037F02EC038F00F
:10030A002FC039F035DF060E306E000E316E000E4A
:10031A00006E3150005C02E13050000819E23050A2
:10032A002E24E16E31502F20E26E010E305C006EF9
:10033A00000E3158016E00502E24E96E01502F2014
:10034A00EA6EEECFE6FF010E305E000E315ADFD7BD
:10035A002EC0E1FF2FC0E2FF200EE66E32503310AE
:10036A001AE0306A316A30502E24E96E31502F205B
:10037A00EA6EEE50200A03E1304A312AF4D7010E20
:10038A00305E000E315A30502E24E16E31502F204B
:08039A00E26E2D0EE66E12006A
:1003A200FF0E156EFF0E166EFF0E176EFF0E186E05
:1003B200450E196E6E0E1A6E640E1B6E1C6A1D6A55
:1003C2001E6A2D0E1F6E3E0E206E216AFF0E226ED9
:1003D200FF0E236E010E3E6E33DE0F0EC16E0F0E48
:1003E200956EFF0E816EF80E936E0EDF0C0E3E6E52
:1003F20027DEFF0E231802E1FF0E22184EE1819242
:1004020083B003D0226A236A14D083B205D0080EC7
:10041200226E000E236E0DD083B405D0050E226E1F
:10042200000E236E06D083B604D0020E226E000E9A
:10043200236E8182819483B001D014D083B205D01F
:10044200090E226E000E236E0DD083B405D0060E67
:10045200226E000E236E06D083B604D0030E226EE7
:10046200000E236E8184819083B001D014D083B2B8
:1004720005D0070E226E000E236E0DD083B405D078
:10048200040E226E000E236E06D083B604D0010E37
:10049200226E000E236E8180ACD7010E3E6ED0DD3F
:1004A20022C02CF023C02DF0250E2E6E000E2F6ED2
:1004B2000BDF010E366E010E376E250E386E000E02
:1004C200396E1DDE030E0B6E080E0C6E770E0D6E6E
:1004D2000D2EFED70C2EFCD70B2EFAD7020E366E3F
:1004E200010E376E1F0E386E000E396E08DEFF0EDB
:1004F200161802E1FF0E15184EE1819283B003D067
:10050200156A166A14D083B205D0080E156E000E55
:10051200166E0DD083B405D0050E156E000E166E44
:1005220006D083B604D0020E156E000E166E8182BE
:10053200819483B001D014D083B205D0090E156E18
:10054200000E166E0DD083B405D0060E156E000E89
:10055200166E06D083B604D0030E156E000E166E0C
:100562008184819083B001D014D083B205D0070E6C
:10057200156E000E166E0DD083B405D0040E156EE6
:10058200000E166E06D083B604D0010E156E000E54
:10059200166E8180ACD715C02CF016C02DF0250E3A
:1005A2002E6E000E2F6E90DE020E366E010E376E2C
:1005B200250E386E000E396EA2DDFF0E181802E10C
:1005C200FF0E17183DE1819483B01AD015502224F2
:1005D200006E16502320016E00C01DF001C01EF0F7
:1005E20000C02CF001C02DF0250E2E6E000E2F6ED5
:1005F2006BDE250E2C6E000E2D6E59DE176A186A00
:100602008184819083B01AD01550225C006E1650FE
:100612002358016E00C01DF001C01EF000C02CF076
:1006220001C02DF0250E2E6E000E2F6E4DDE250E12
:100632002C6E000E2D6E3BDE176A186A8180BDD7C4
:10064200FF0E176EFF0E186EFF0E226EFF0E236E48
:10065200FF0E156EFF0E166E1D6A1E6A0B0E0B6ED6
:10066200260E0C6E5D0E0D6E0D2EFED70C2EFCD7D7
:100672000B2EFAD700000000010E366E010E376E07
:0E068200190E386E000E396E3ADDB3D6FFD772
:020000040030CA
:0E000000010C191EFF0080FF0FC00FE00F4023
:00000001FF
