:1000000002EF01F00000000000EF00F0000000002F
:0A0010000000000000000000F3D71C
:06001C00000000001200CC
:100022000F0E0C6E470E0D6E0D2EFED70C2EFCD74A
:06003200000000001200B6
:0A003800210E0D6E0D2EFED71200F2
:100042003ABE02D0839E01D0838E3ABC02D0839CFA
:1000520001D0838C3ABA02D0839A01D0838A3AB80B
:1000620002D0839801D0838831B002D0848401D039
:1000720084948482D2DF84923AB602D0839E01D0E5
:10008200838E3AB402D0839C01D0838C3AB202D0E0
:10009200839A01D0838A3AB002D0839801D08388B0
:1000A20031B002D0848401D084948482B6DF8492F9
:0C00B20031A002D0B5DF01D0BEDF12008B
:0C00BE00319039C03AF0BEDF31801200F2
:1000CA000FD0800E346E19D0C00E346E16D0940E36
:1000DA00346E13D0D40E346E10D0800E346E0DD020
:1000EA003450010AEEE03450020AEEE03450030ABA
:1000FA00EEE03450040AEEE0F0D73504006E3450D6
:10010A00002600C034F000C03AF096DF3190386A19
:10011A0038503624E96E000E3720EA6EEE520BE0B4
:10012A0038503624E96E000E3720EA6EEECF39F0E9
:0A013A00C1DF382AEDD73180120032
:100144000900F5CFE6FF0006FBE10106F9E1120024
:10015400969296949598959A959C959E849284945B
:10016400839E839C839A83985ADF59DF58DF838A5E
:100174008388848251DF849252DF84824DDF8492AB
:100184004EDF848249DF84924ADF8398848244DF8D
:10019400849245DF848240DF8492839A838E8482B2
:1001A4003BDF84923CDF839E8388848235DF8492A4
:1001B4008398848231DF849232DF84822DDF8492BB
:1001C4008388848229DF84922ADF8398848224DFCF
:1001D4008492838E838C838A838884821DDF8492B5
:0601E4001EDF3180120055
:1001EA00010E3A6E29DF010E346E040E356E32C0EE
:0A01FA0036F033C037F064DF120066
:1002040083EC01F00F0EC16E0F0E956EFF0E816E22
:10021400F80E936E9DDF0C0E3A6E11DF819283B05F
:1002240006D0270E326E000E336EDDDF17D083B298
:1002340006D0290E326E000E336ED5DF0FD083B494
:1002440006D0250E326E000E336ECDDF07D083B696
:1002540005D02F0E326E000E336EC5DF818281947D
:1002640083B006D02B0E326E000E336EBCDF17D077
:1002740083B206D0230E326E000E336EB4DF0FD07D
:1002840083B406D01B0E326E000E336EACDF07D083
:1002940083B605D0190E326E000E336EA4DF81844E
:1002A400819083B006D0150E326E000E336E9BDF44
:1002B40017D083B206D0210E326E000E336E93DF58
:1002C4000FD083B406D01F0E326E000E336E8BDF58
:1002D40007D083B605D01D0E326E000E336E83DF59
:0602E40081809CD7FFD7CA
:1003060010EE15F01C0E006E010E016EEA0EF66E72
:0E031600020EF76E000EF86EA2EC00F0120060
:0402EA003C5F5F0016
:0202EE003300DB
:0202F0003600D6
:0202F2003100D9
:0202F4003400D4
:0202F6003700CF
:0202F8003900CB
:0202FA003500CD
:0202FC003000D0
:0202FE003800C6
:040300005F5F3E00FD
:020304003200C5
:020000040030CA
:0E000000010C191EFF0080FF0FC00FE00F4023
:00000001FF
