:1000000016EF01F00000000000EF00F0000000001B
:0A0010000000000000000000F3D71C
:06001C00000000001200CC
:100022000F0E0C6E470E0D6E0D2EFED70C2EFCD74A
:06003200000000001200B6
:0A003800210E0D6E0D2EFED71200F2
:100042003CBE02D0839E01D0838E3CBC02D0839CF6
:1000520001D0838C3CBA02D0839A01D0838A3CB807
:1000620002D0839801D0838833B002D0848401D037
:1000720084948482D2DF84923CB602D0839E01D0E3
:10008200838E3CB402D0839C01D0838C3CB202D0DC
:10009200839A01D0838A3CB002D0839801D08388AE
:1000A20033B002D0848401D084948482B6DF8492F7
:0C00B20033A002D0B5DF01D0BEDF120089
:0C00BE0033903BC03CF0BEDF33801200EA
:1000CA000FD0800E366E19D0C00E366E16D0940E32
:1000DA00366E13D0D40E366E10D0800E366E0DD01A
:1000EA003650010AEEE03650020AEEE03650030AB4
:1000FA00EEE03650040AEEE0F0D73704006E3650D0
:10010A00002600C036F000C03CF096DF33903A6A11
:10011A003A503824E96E000E3920EA6EEE520BE0AE
:10012A003A503824E96E000E3920EA6EEECF3BF0E1
:0A013A00C1DF3A2AEDD7338012002E
:100144000900F5CFE6FF0006FBE10106F9E1120024
:10015400969296949598959A959C959E849284945B
:10016400839E839C839A83985ADF59DF58DF838A5E
:100174008388848251DF849252DF84824DDF8492AB
:100184004EDF848249DF84924ADF8398848244DF8D
:10019400849245DF848240DF8492839A838E8482B2
:1001A4003BDF84923CDF839E8388848235DF8492A4
:1001B4008398848231DF849232DF84822DDF8492BB
:1001C4008388848229DF84922ADF8398848224DFCF
:1001D4008492838E838C838A838884821DDF8492B5
:0601E4001EDF3380120053
:1001EA00010E3C6E29DF820E0C6EDD0E0D6E0D2E99
:1001FA00FED70C2EFCD700000000010E366E040E4E
:10020A00376E34C038F035C039F05ADF820E0C6EC2
:10021A00DD0E0D6E0D2EFED70C2EFCD70000000051
:02022A001200C0
:10022C00F6EC01F0C26A060EC16E0F0E956EF80E5A
:10023C00936EFF0E816E88DF820E0C6EDD0E0D6EDE
:10024C000D2EFED70C2EFCD700000000010E3C6ECC
:10025C00F2DE820E0C6EDD0E0D6E0D2EFED70C2E08
:10026C00FCD7000000000C0E3C6EE5DE820E0C6E1E
:10027C00DD0E0D6E0D2EFED70C2EFCD700000000EF
:10028C008190820E0C6EDD0E0D6E0D2EFED70C2E97
:10029C00FCD70000000083B006D01F0E346E000E99
:1002AC00356E9DDF17D083B206D0260E346E000E4D
:1002BC00356E95DF0FD083B406D0240E346E000E4D
:1002CC00356E8DDF07D083B605D01D0E346E000E53
:1002DC00356E85DF8180820E0C6EDD0E0D6E0D2E5F
:1002EC00FED70C2EFCD7000000008192820E0C6E03
:1002FC00DD0E0D6E0D2EFED70C2EFCD7000000006F
:10030C0083B006D0170E346E000E356E68DF17D032
:10031C0083B206D0150E346E000E356E60DF0FD032
:10032C0083B406D01B0E346E000E356E58DF07D02A
:10033C0083B605D0190E346E000E356E50DF8182F7
:10034C00820E0C6EDD0E0D6E0D2EFED70C2EFCD714
:10035C00000000008194820E0C6EDD0E0D6E0D2ED1
:10036C00FED70C2EFCD70000000083B006D0280E60
:10037C00346E000E356E33DF17D083B206D0310EDB
:10038C00346E000E356E2BDF0FD083B406D02F0EDB
:10039C00346E000E356E23DF07D083B605D02D0EDC
:1003AC00346E000E356E1BDF8184820E0C6EDD0EFA
:1003BC000D6E0D2EFED70C2EFCD70000000060D762
:0203CC00FFD759
:1003EC0010EE15F01E0E006E010E016ECE0EF66EA6
:0E03FC00030EF76E000EF86EA2EC00F0120079
:0203CE003800F5
:0203D0003000FB
:0203D2003200F7
:0203D4003500F2
:0203D6003100F4
:0503D8003C2D2D2D005D
:0203DD003400EA
:0203DF003700E5
:0503E1002D2D2D3E0052
:0203E6003300E2
:0203E8003600DD
:0203EA003900D8
:020000040030CA
:0D000100220F0EFF0181FF0FC00FE00F4026
:00000001FF
