:10000000EDEF01F00000000000EF00F00000000044
:0A0010000000000000000000F3D71C
:0A001C00210E0D6E0D2EFED712000E
:100026000F0E0C6E470E0D6E0D2EFED70C2EFCD746
:06003600000000001200B2
:06003C00000000001200AC
:10004200086A096A100E0C6E01340836093604502B
:10005200085E0550D8A0053C095ED8B007D0045010
:1000620008260550D8B0053C0926D890003601363E
:060072000C2EEAD712007B
:10007800000160BF02D0839E01D0838E60BD02D094
:10008800839C01D0838C60BB02D0839A01D0838A81
:1000980060B902D0839801D0838852B002D084849A
:1000A80001D084948482C6DF849260B702D0839E94
:1000B80001D0838E60B502D0839C01D0838C60B35D
:1000C80002D0839A01D0838A60B102D0839801D08C
:1000D800838852B002D0848401D084948482AADFB9
:0E00E800849252A002D09BDF01D094DF120060
:1000F6005D6A050E5D5C0BE25D5000016325E16EF5
:10010600000E6421E26E200EE66E5D2AF2D7000133
:100116005D506325E16E000E6421E26EE66A5D06BF
:100126005D5063255E6E000E64215F6E0A0E046EDE
:10013600000E056E61C000F062C001F07FDF08C0EE
:1001460000F009C001F0300E00265EC0E1FF5FC07E
:10015600E2FF00C0E6FF0A0E046E000E056E61C0E7
:1001660000F062C001F06ADF00C061F001C062F019
:10017600000E011802E1000E001801E102D05D0632
:04018600CFD71200BD
:0C018A0052905DC060F073DF52801200E4
:10019600969296949598959A959C959E8492849419
:1001A600839E839C839A83983BDF3ADF39DF838A79
:1001B6008388848240DF849233DF84823CDF8492AA
:1001C6002FDF848238DF84922BDF8398848233DFAB
:1001D600849226DF84822FDF8492839A838E8482A0
:1001E6002ADF84921DDF839E8388848224DF8492A3
:1001F6008398848220DF849213DF84821CDF8492BA
:100206008388848218DF84920BDF8398848213DFCD
:100216008492838E838C838A838884820CDF849283
:06022600FFDE5280120011
:10022C000900F5CFE6FF0006FBE10106F9E112003B
:10023C000FD0800E536E19D0C00E536E16D0940E84
:10024C00536E13D0D40E536E10D0800E536E0DD04F
:10025C005350010AEEE05350020AEEE05350030AE9
:10026C00EEE05350040AEEE0F0D75404006E535005
:10027C00002600C053F000C060F0F8DE5290576AC0
:10028C0057505524E96E000E5620EA6EEE520BE0E4
:10029C0057505524E96E000E5620EA6EEECF5DF0F5
:0A02AC006EDF572AEDD752801200D2
:1002B600010E556E53C001F054C002F0534A542A41
:1002C60001C0E9FF02C0EAFFEE50000A16E053C083
:1002D600E9FF54C0EAFFEE50200A0DE05550535C8A
:1002E600E16E000E5458E26E53C0E9FF54C0EAFFB7
:0C02F600EECFE6FF5506552ADDD71200BA
:10030200596A5A6A53C05BF054C05CF0800E5418AC
:10031200006E800E005C02E1000E535C0BE2010EE7
:10032200596E000E5A6E535000085B6E54C05CF05A
:10033200000E5C565BC061F05CC062F055C063F0B9
:1003420056C064F0D7DE060E576E000E586E000ED1
:10035200006E5850005C02E15750000819E25750F5
:100362005524E16E58505620E26E010E575C006E25
:10037200000E5858016E00505524E96E0150562067
:10038200EA6EEECFE6FF010E575E000E585ADFD737
:1003920055C0E1FF56C0E2FF200EE66E59505A10DA
:1003A2001AE0576A586A57505524E96E5850562039
:1003B200EA6EEE50200A03E1574A582AF4D7010E9A
:1003C200575E000E585A57505524E16E5850562029
:0803D200E26E2D0EE66E120032
:1003DA0066EC04F0FF0E476EFF0E486E070E936E32
:1003EA000F0EC16ED3DE010E0001606F40DE0C0EEF
:1003FA00606F3DDE94908290010E536E030E546E30
:10040A001A0E556E000E566E14DF010E536E060E4E
:10041A00546E1C0E556E000E566E0BDFFF0E4818FA
:10042A0002E1FF0E4718D8A443D1506A516A800EE0
:10043A005118006E800E005C02E1180E505CD8B0B4
:10044A002DD150C053F051C054F0490E556E000ED4
:10045A00566E52DF490E536E000E546E27DF010EA0
:10046A00536E010E546E490E556E000E566EE1DE45
:10047A00456A466A800E4618006E800E005C02E1EC
:10048A003C0E455CD8B0F7D045C053F046C054F096
:10049A00370E556E000E566E2FDF370E536E000E56
:1004AA00546E04DF010E536E040E546E370E556EF1
:1004BA00000E566EBEDE356A366A800E3618006E3B
:1004CA00800E005C02E13C0E355CD8B0C1D035C06C
:1004DA0053F036C054F03E0E556E000E566E0CDFC9
:1004EA003E0E536E000E546EE1DE010E536E070E81
:1004FA00546E3E0E556E000E566E9BDE81A090D055
:10050A0081B242D0454A462A060E0B6E130E0C6E75
:10051A00AD0E0D6E0D2EFED70C2EFCD70B2EFAD774
:10052A000000000045C053F046C054F0370E556E27
:10053A00000E566EE1DE370E536E000E546EB6DEB6
:10054A00010E536E040E546E370E556E000E566E23
:10055A0070DE000E461802E13C0E451814E1456AA9
:10056A00466A010E536E040E546E170E556E000E37
:10057A00566E5FDE010E536E040E546E150E556EE6
:10058A00000E566E56DEBCD781B442D0504A512A6C
:10059A00060E0B6E130E0C6EAD0E0D6E0D2EFED7E3
:1005AA000C2EFCD70B2EFAD70000000050C053F0D7
:1005BA0051C054F0490E556E000E566E9DDE490E1E
:1005CA00536E000E546E72DE010E536E010E546E9F
:1005DA00490E556E000E566E2CDE000E511802E1C1
:1005EA00630E501814E1506A516A010E536E010EDF
:1005FA00546E1E0E556E000E566E1BDE010E536EA5
:10060A00010E546E2D0E556E000E566E12DEBCD7BC
:10061A0081B605D0010E476E000E486E01D06ED726
:10062A00060E0B6E130E0C6EAD0E0D6E0D2EFED752
:10063A000C2EFCD70B2EFAD700000000FF0E48182C
:10064A0002E1FF0E471801E003D0354A362A35D7B2
:10065A00010E536E080E546E2B0E556E000E566E1A
:10066A00E8DDFF0E481802E1FF0E471801E003D04B
:10067A00454A462AFFD6010E536E050E546E2F0EBA
:10068A00556E000E566ED5DDFF0E481802E1FF0EBC
:10069A00471801E003D0504A512AC9D6010E536EB9
:1006AA00020E546E330E556E000E566EC2DDB6D66D
:1006BA00800E5118006E800E005C02E1000E505C44
:1006CA00D8A0D5D050C053F051C054F0490E556E41
:1006DA00000E566E11DE490E536E000E546EE6DDA4
:1006EA00010E536E010E546E490E556E000E566E73
:1006FA00A0DD800E4618006E800E005C02E1000E3E
:10070A00455CD8A090D045C053F046C054F0370E8F
:10071A00556E000E566EF0DD370E536E000E546E97
:10072A00C5DD010E536E040E546E370E556E000E63
:10073A00566E7FDD800E3618006E800E005C02E178
:10074A00000E355C4CE335C053F036C054F03E0E13
:10075A00556E000E566ED0DD3E0E536E000E546E70
:10076A00A5DD010E536E070E546E3E0E556E000E39
:10077A00566E5FDD81A00FD00B0E0B6E260E0C6E2F
:10078A005D0E0D6E0D2EFED70C2EFCD70B2EFAD752
:10079A00000000000DD0020E0B6E040E0C6EBA0E95
:1007AA000D6E0D2EFED70C2EFCD70B2EFAD700009D
:1007BA00800E3618006E800E005C02E10B0E355C6E
:1007CA0009E2010E536E080E546E310E556E000E7C
:1007DA00566E2FDD010E355E000E365AABD7010E6E
:1007EA00536E080E546E290E556E000E566E21DD9C
:1007FA003B0E356E000E366E800E4618006E800E69
:10080A00005C02E10B0E455C09E2010E536E050E17
:10081A00546E230E556E000E566E0BDD010E455EAC
:10082A00000E465A66D7010E536E050E546E210EFF
:10083A00556E000E566EFDDC3B0E456E000E466E82
:10084A00800E5118006E800E005C02E10B0E505CA7
:10085A0009E2010E536E020E546E250E556E000EFD
:10086A00566EE7DC010E505E000E515A21D7010E7A
:10087A00536E020E546E270E556E000E566ED9DC5C
:10088A008280330E0B6EBB0E0C6EDF0E0D6E0D2EBC
:10089A00FED70C2EFCD70B2EFAD700000000829050
:0208AA00FFD776
:1008CC0010EE15F0200E006E010E016EAC0EF66EE1
:0E08DC00080EF76E000EF86E16EC01F012001A
:0208AC0030001A
:0308AE0020200007
:0208B1003A000B
:0208B3003A0009
:0308B50020200000
:0208B80020001E
:0208BA0020001C
:0208BC0020001A
:0208BE00200018
:0208C000200016
:0208C200200014
:0208C400300002
:0208C600200010
:0208C80020000E
:0208CA0020000C
:020000040030CA
:0E000000010C191EFF8180FF0FC00FE00F40A2
:00000001FF
