:10000000EAEF01F00000000000EF00F00000000047
:0A0010000000000000000000F3D71C
:0A001C00210E0D6E0D2EFED712000E
:100026000F0E0C6E470E0D6E0D2EFED70C2EFCD746
:06003600000000001200B2
:06003C00000000001200AC
:10004200086A096A100E0C6E01340836093604502B
:10005200085E0550D8A0053C095ED8B007D0045010
:1000620008260550D8B0053C0926D890003601363E
:060072000C2EEAD712007B
:1000780056BE02D0839E01D0838E56BC02D0839C8C
:1000880001D0838C56BA02D0839A01D0838A56B89D
:1000980002D0839801D0838839B002D0848401D0FB
:1000A80084948482C7DF849256B602D0839E01D09E
:1000B800838E56B402D0839C01D0838C56B202D072
:1000C800839A01D0838A56B002D0839801D083885E
:1000D80039B002D0848401D084948482ABDF8492C6
:0C00E80039A002D09CDF01D095DF12008F
:1000F400536A050E535C0AE253505124E16E000E1C
:100104005220E26E200EE66E532AF3D75350512448
:10011400E16E000E5220E26EE66A530653505124FB
:10012400546E000E5220556E0A0E046E000E056EBB
:100134004FC000F050C001F082DF08C000F009C0D9
:1001440001F0300E002654C0E1FF55C0E2FF00C0AC
:10015400E6FF0A0E046E000E056E4FC000F050C09C
:1001640001F06DDF00C04FF001C050F0000E011827
:1001740002E1000E001801E102D05306CFD71200AD
:0C01840039904FC056F076DF3980120031
:10019000969296949598959A959C959E849284941F
:1001A000839E839C839A83983EDF3DDF3CDF838A76
:1001B0008388848243DF849236DF84823FDF8492A7
:1001C00032DF84823BDF84922EDF8398848236DFA5
:1001D000849229DF848232DF8492839A838E8482A0
:1001E0002DDF849220DF839E8388848227DF8492A0
:1001F0008398848223DF849216DF84821FDF8492B7
:10020000838884821BDF84920EDF8398848216DFCA
:100210008492838E838C838A838884820FDF849286
:0602200002DF398012002C
:100226000900F5CFE6FF0006FBE10106F9E1120041
:100236000FD0800E456E19D0C00E456E16D0940EA6
:10024600456E13D0D40E456E10D0800E456E0DD07F
:100256004550010AEEE04550020AEEE04550030A19
:10026600EEE04550040AEEE0F0D74604006E455035
:10027600002600C045F000C056F0FBDE3990496A02
:1002860049504724E96E000E4820EA6EEE520BE014
:1002960049504724E96E000E4820EA6EEECF4FF033
:0A02A6006EDF492AEDD739801200FF
:1002B000010E476E45C001F046C002F0454A462A8D
:1002C00001C0E9FF02C0EAFFEE50000A16E045C097
:1002D000E9FF46C0EAFFEE50200A0DE04750455CBA
:1002E000E16E000E4658E26E45C0E9FF46C0EAFFE7
:0C02F000EECFE6FF4706472ADDD71200DC
:1002FC004B6A4C6A45C04DF046C04EF0800E461815
:10030C00006E800E005C02E1000E455C0BE2010EFB
:10031C004B6E000E4C6E455000084D6E46C04EF0B4
:10032C00000E4E564DC04FF04EC050F047C051F02D
:10033C0048C052F0D9DE060E496E000E4A6E000E11
:10034C00006E4A50005C02E14950000819E2495025
:10035C004724E16E4A504820E26E010E495C006E63
:10036C00000E4A58016E00504724E96E0150482097
:10037C00EA6EEECFE6FF010E495E000E4A5ADFD759
:10038C0047C0E1FF48C0E2FF200EE66E4B504C1018
:10039C001AE0496A4A6A49504724E96E4A50482093
:1003AC00EA6EEE50200A03E1494A4A2AF4D7010EBC
:1003BC00495E000E4A5A49504724E16E4A50482083
:0803CC00E26E2D0EE66E120038
:1003D4002AEC03F0070E936E0F0EC16ED7DE010EEA
:1003E400566E48DE0C0E566E45DE010E456E030E4B
:1003F400466E1E0E476E000E486E1BDF010E456EE4
:10040400060E466E200E476E000E486E12DF436ADB
:10041400446A800E4418006E800E005C02E1180EDF
:10042400435CD8B000D143C045F044C046F03A0E16
:10043400476E000E486E60DF3A0E456E000E466E43
:1004440035DF010E456E010E466E3A0E476E000E04
:10045400486EEFDE416A426A800E4218006E800EDA
:10046400005C02E13C0E415CD8B0D1D041C045F003
:1004740042C046F02B0E476E000E486E3DDF2B0E39
:10048400456E000E466E12DF010E456E040E466E7A
:100494002B0E476E000E486ECCDE296A2A6A800E47
:1004A4002A18006E800E005C02E13C0E295CD8B074
:1004B400A2D029C045F02AC046F0320E476E000E85
:1004C400486E1ADF320E456E000E466EEFDE010EE8
:1004D400456E070E466E320E476E000E486EA9DE5C
:1004E40081A00FD00B0E0B6E260E0C6E5D0E0D6EE2
:1004F4000D2EFED70C2EFCD70B2EFAD700000000D1
:100504000DD0020E0B6E040E0C6EBA0E0D6E0D2E77
:10051400FED70C2EFCD70B2EFAD7000081B233D0B5
:10052400414A422A41C045F042C046F02B0E476E74
:10053400000E486EE1DE2B0E456E000E466EB6DEF2
:10054400010E456E040E466E2B0E476E000E486E6D
:1005540070DE000E421802E13C0E411814E1416ABB
:10056400426A010E456E040E466E150E476E000E6D
:10057400486E5FDE010E456E040E466E240E476E15
:10058400000E486E56DE81B433D0434A442A43C039
:1005940045F044C046F03A0E476E000E486EACDE9D
:1005A4003A0E456E000E466E81DE010E456E010E5A
:1005B400466E3A0E476E000E486E3BDE000E44183F
:1005C40002E1180E431814E1436A446A010E456EB1
:1005D400010E466E260E476E000E486E2ADE010E90
:1005E400456E010E466E1A0E476E000E486E21DEF1
:1005F400294A2A2A54D7010E456E080E466E1C0E4F
:10060400476E000E486E15DE414A422A25D7010E78
:10061400456E050E466E220E476E000E486E09DECC
:10062400434A442AF6D6010E456E020E466E180E53
:0C063400476E000E486EFDDDEAD6FFD7D1
:1006540010EE15F0140E006E010E016E400EF66ED3
:0E066400060EF76E000EF86E13EC01F0120099
:0306400020200077
:02064300200095
:02064500300083
:02064700200091
:020649003A0075
:02064B003A0073
:02064D0020008B
:02064F00300079
:0306510020200066
:020000040030CA
:0E000000000C1F1EFF8381FF0FC00FE00F409A
:00000001FF
