:1000000061EF00F00000000000EF00F000000000D1
:0A0010000000000000000000F3D71C
:10001C000B0E0B6E260E0C6E5D0E0D6E0D2EFED79E
:0E002C000C2EFCD70B2EFAD70000000012009D
:10003A000900F5CFE6FF0006FBE10106F9E112002F
:10004A00FF0E836E0B0E0B6E260E0C6E5D0E0D6E82
:10005A000D2EFED70C2EFCD70B2EFAD7000000006F
:10006A00836A030E0B6E080E0C6E770E0D6E0D2E44
:0C007A00FED70C2EFCD70B2EFAD712007C
:10008600FF0E836E030E0B6E8A0E0C6E550E0D6EF2
:100096000D2EFED70C2EFCD70B2EFAD70000000033
:1000A600836A030E0B6E080E0C6E770E0D6E0D2E08
:0C00B600FED70C2EFCD70B2EFAD7120040
:1000C200030E936E956A81B00DD0DCDFBDDFDADFFF
:1000D200A4DFD8DFB9DFD6DFA0DFD4DFB5DFB4DF3E
:1000E2009CDFF1D781B237D0CDDFCCDFADDFACDF23
:1000F200ABDF93DFA9DFA8DFA7DFA6DFA5DF8DDFF8
:10010200C1DFA2DFA1DFA0DF9FDF87DF9DDF9CDFF2
:100112009BDF9ADF99DF81DFB5DFB4DF95DF94DF04
:1001220093DF7BDF91DF90DF8FDF8EDF8DDF75DF87
:100132008BDFA8DFA7DFA6DFA5DF6FDFA3DFA2DFEC
:10014200A1DFA0DF9FDF69DF7FDF9CDF9BDF9ADF1C
:0A01520099DF63DFC7D7B7D7FFD7E7
:020000040030CA
:0E000000010C1F1EFF8181FF0FC00FE00F409B
:00000001FF
