:1000000015EF01F00000000000EF00F0000000001C
:0A0010000000000000000000F3D71C
:10001C00220E0C6E086A096A0A6A0B6A0C06D8B4BE
:10002C001FD0D8900B320A32093208320332023216
:10003C0001320032D8A0F2D70C06D8B409D0045043
:10004C0008260550092206500A2207500B22EAD72F
:10005C00045008260550092206500A2207500B228C
:02006C00120080
:10006E001EC016F01FC017F0000E186E196E010E8E
:04007E00156E1200E9
:100082000134083609360450085E0550D8A0053CF4
:10009200095E003601360F0E0C6E01340836093641
:1000A200045000A006D0085E0550D8A0053C095EA9
:1000B20005D008260550D8B0053C09260036013681
:1000C2000C2EEBD700B006D0045008260550D8B04D
:0800D200053C092600001200A4
:1000DA000450000A08E10550000A05E1FF0E006E0F
:1000EA007F0E016E57D00D6A096A086A0150001026
:1000FA00D8B4000C015005180A6E0ABE0D1E0B6A10
:10010A0005AE05D0041E051E042AD8B4052A01AE80
:10011A0005D0001E011E002AD8B4012A015005107C
:10012A000A6E0ABE10D0A8DF0BB020D00DAE000CAC
:10013A00001E011E002AD8B4012A081E091E082A18
:10014A00D8B4092A000C05AE0DD001BE07D0015063
:10015A00096E0050086E016A006AE8D7016A006AEF
:10016A00002A000C011E001E0B2ADDD7082AD8B46B
:10017A00092A0450085CD8A4D9D70550095CD8A428
:10018A00D5D7096A086A002AD8B4012A01AECED79F
:06019A000000FF0C120042
:1001A000155205E1010E1E6E000E1F6E60DF16C0B7
:1001B00000F017C001F018C002F019C003F06D0E76
:1001C000046E4E0E056EC60E066E410E076E26DFDD
:1001D000390E0024056E300E0120066E000E02203E
:1001E000076E000E0320086E07C000F008C001F083
:1001F000000E08BEFF0E026E036EFF0E00167F0E8D
:100200000116000E0216031600C016F001C017F00A
:0A02100002C018F003C019F012003C
:10021A000900F5CFE6FF0006FBE10106F9E112004D
:10022A001A6A1B6A1C6A1D6A010E936EFD0E946E91
:10023A00956A828281B0F0D0FF0E836EFF0E816EC6
:10024A00020E0B6E040E0C6EBA0E0D6E0D2EFED73C
:10025A000C2EFCD70B2EFAD7000081A0DDD0836AC2
:10026A00816A020E0B6E040E0C6EBA0E0D6E0D2E06
:10027A00FED70C2EFCD70B2EFAD700008CDF060E09
:10028A00046E000E056E24DF08C000F009C001F0FC
:10029A00010E0024026E000E0120036E02C01CF043
:1002AA0003C01DF0000E031802E1010E021802E15C
:1002BA00838227D0000E1D1802E1020E1C1802E1EB
:1002CA0083841FD0000E1D1802E1030E1C1802E1E0
:1002DA00838617D0000E1D1802E1040E1C1802E1D5
:1002EA0083880FD0000E1D1802E1050E1C1802E1CA
:1002FA00838A07D0000E1D1802E1060E1C18D8B416
:10030A00838C49DF060E046E000E056EE1DE08C01E
:10031A0000F009C001F0010E0024026E000E012057
:10032A00036E02C01AF003C01BF0000E031802E1AC
:10033A00010E021802E1818227D0000E1B1802E189
:10034A00020E1A1802E181841FD0000E1B1802E166
:10035A00030E1A1802E1818617D0000E1B1802E15B
:10036A00040E1A1802E181880FD0000E1B1802E150
:10037A00050E1A1802E1818A07D0000E1B1802E145
:10038A00060E1A18D8B4818C000E1B1802E1060E4C
:10039A001A1842E11B501D1802E11C501A183CE1C0
:1003AA0082820B0E0B6E260E0C6E5D0E0D6E0D2EDE
:1003BA00FED70C2EFCD70B2EFAD700000000829233
:1003CA00060E0B6E130E0C6EAD0E0D6E0D2EFED7B5
:1003DA000C2EFCD70B2EFAD70000000082820B0EDF
:1003EA000B6E260E0C6E5D0E0D6E0D2EFED70C2EAC
:1003FA00FCD70B2EFAD7000000008292060E0B6E75
:10040A00130E0C6EAD0E0D6E0D2EFED70C2EFCD7F4
:0C041A000B2EFAD7000000000DD7FFD712
:020000040030CA
:0D000100220F0EFF0181FF0FC00FE00F4026
:00000001FF
