:1000000046EF02F00000000000EF00F000000000EA
:0A0010000000000000000000F3D71C
:0A001C00210E0D6E0D2EFED712000E
:100026000F0E0C6E470E0D6E0D2EFED70C2EFCD746
:06003600000000001200B2
:06003C00000000001200AC
:1000420055BE02D0839E01D0838E55BC02D0839CC4
:1000520001D0838C55BA02D0839A01D0838A55B8D5
:1000620002D0839801D083884CB002D0848401D01E
:1000720084948482E2DF849255B602D0839E01D0BA
:10008200838E55B402D0839C01D0838C55B202D0AA
:10009200839A01D0838A55B002D0839801D0838895
:1000A2004CB002D0848401D084948482C6DF8492CE
:0C00B2004CA002D0B7DF01D0B0DF12007C
:0C00BE004C9054C055F0BEDF4C80120086
:1000CA000FD0800E4F6E19D0C00E4F6E16D0940E00
:1000DA004F6E13D0D40E4F6E10D0800E4F6E0DD0CF
:1000EA004F50010AEEE04F50020AEEE04F50030A69
:1000FA00EEE04F50040AEEE0F0D75004006E4F5085
:10010A00002600C04FF000C055F096DF4C90536AAD
:10011A0053505124E96E000E5220EA6EEE520BE063
:10012A0053505124E96E000E5220EA6EEECF54F07D
:0A013A00C1DF532AEDD74C801200FC
:100144004D6A4E6A836A0B0E0B6E260E0C6E5D0EA4
:100154000D6E0D2EFED70C2EFCD70B2EFAD70000F9
:100164000000FF0E836E0B0E0B6E260E0C6E5D0EE2
:100174000D6E0D2EFED70C2EFCD70B2EFAD70000D9
:1001840000004D4A4E2A800E006E800E4E18005C10
:0A01940002E14D500508D6E212000A
:10019E00010E556E4FDF820E0C6EDD0E0D6E0D2EA6
:1001AE00FED70C2EFCD700000000010E4F6E040E81
:1001BE00506E4DC051F04EC052F080DF820E0C6E6C
:1001CE00DD0E0D6E0D2EFED70C2EFCD7000000009E
:0201DE0012000D
:1001E0008292020E0B6E040E0C6EBA0E0D6E0D2E68
:1001F000FED70C2EFCD70B2EFAD7000082821200FD
:10020000969296949598959A959C959E84928494AE
:10021000839E839C839A839806DF05DF04DF838AAD
:10022000838884820BDF8492FEDE848207DF8492DF
:10023000FADE848203DF8492F6DE83988482FEDE17
:100240008492F1DE8482FADE8492839A838E8482A1
:10025000F5DE8492E8DE839E83888482EFDE8492DA
:1002600083988482EBDE8492DEDE8482E7DE8492F1
:1002700083888482E3DE8492D6DE83988482DEDE05
:100280008492838E838C838A83888482D7DE84924F
:06029000CADE4C801200E2
:100296000900F5CFE6FF0006FBE10106F9E11200D1
:1002A600000E341802E1070E331820E1000E47183D
:1002B60002E1000E461816E1000E491802E1000E92
:1002C60048180CE1000E4B1802E1010E4A1802E133
:1002D60036DF03D082DF356A366A03D07EDF356AC1
:1002E600366A03D07ADF356A366A03D076DF356A36
:0402F600366A120052
:1002FA008190820E0C6EDD0E0D6E0D2EFED70C2E29
:10030A00FCD70000000083B006D0280E4D6E000E08
:10031A004E6E40DF24D083B20AD0260E4D6E000EF8
:10032A004E6E38DF070E006E000E016EA9D083B440
:10033A000AD0240E4D6E000E4E6E2CDF040E006E97
:10034A00000E016E9DD083B60AD0310E4D6E000E9E
:10035A004E6E20DF010E006E000E016E91D081807C
:10036A00820E0C6EDD0E0D6E0D2EFED70C2EFCD7F6
:10037A00000000008192820E0C6EDD0E0D6E0D2EB5
:10038A00FED70C2EFCD70000000083B008D02F0E39
:10039A004D6E000E4E6EFEDE006A016A71D083B2A7
:1003AA000AD02D0E4D6E000E4E6EF4DE080E006E53
:1003BA00000E016E65D083B40AD01C0E4D6E000E7D
:1003CA004E6EE8DE050E006E000E016E59D083B641
:1003DA000AD01A0E4D6E000E4E6EDCDE020E006E54
:1003EA00000E016E4DD08182820E0C6EDD0E0D6EF6
:1003FA000D2EFED70C2EFCD7000000008194820E31
:10040A000C6EDD0E0D6E0D2EFED70C2EFCD70000E5
:10041A00000083B006D0150E4D6E000E4E6EBADE89
:10042A0024D083B20AD0220E4D6E000E4E6EB2DE7A
:10043A00090E006E000E016E23D083B40AD0200E7E
:10044A004D6E000E4E6EA6DE060E006E000E016E9A
:10045A0017D083B60AD01E0E4D6E000E4E6E9ADE6F
:10046A00030E006E000E016E0BD08184820E0C6E9C
:10047A00DD0E0D6E0D2EFED70C2EFCD700000000EF
:02048A0012005E
:10048C00EDEC02F0C26A060EC16E0F0E956EF80E00
:10049C00936EFF0E816EFD0E946EACDE820E0C6EB2
:1004AC00DD0E0D6E0D2EFED70C2EFCD700000000BD
:1004BC00010E556EC0DD820E0C6EDD0E0D6E0D2E16
:1004CC00FED70C2EFCD7000000000C0E556EB3DDD1
:1004DC00820E0C6EDD0E0D6E0D2EFED70C2EFCD783
:1004EC0000000000370E4D6E000E4E6E52DE010EF7
:1004FC00356E000E366EFBDE00C033F001C034F0FA
:10050C00FF0E011802E1FF0E0018F5E0800E341802
:10051C00006E800E005C02E1000E335C33E3E7DE1C
:10052C0000C046F001C047F0FF0E011802E1FF0EBB
:10053C000018F5E0800E4718006E800E005C02E19A
:10054C00000E465C1FE3D3DE00C048F001C049F04A
:10055C00FF0E011802E1FF0E0018F5E0800E49189D
:10056C00006E800E005C02E1000E485C0BE3BFDE07
:10057C0000C04AF001C04BF0FF0E011802E1FF0E63
:10058C000018F5E08ADE000E361802E1010E35186F
:06059C00B2E0A8D7FFD772
:1005DA0010EE15F0370E006E010E016EA20EF66EC9
:0E05EA00050EF76E000EF86E4BEC01F01200DD
:0505A2002D2D2D3E008F
:0205A700320020
:0205A90035001B
:0205AB0033001B
:0205AD00360016
:0205AF00390011
:0205B100340014
:0205B30037000F
:0505B5003C2D2D2D007E
:0205BA00380007
:0205BC0030000D
:0205BE0031000A
:0205C000FFFF3B
:0205C200010036
:0F05C40044696769746520612073656E68610022
:0205D300FFFF28
:0205D500FFFF26
:0205D700FFFF24
:020000040030CA
:0D000100220D0EFF0080FF0FC00FE00F402A
:00000001FF
