:1000000016EF00F00000000000EF00F0000000001C
:0A0010000000000000000000F3D71C
:10001C000900F5CFE6FF0006FBE10106F9E112004D
:10002C00010E936E956A81B020D0836A0B0E0B6E15
:10003C00260E0C6E5D0E0D6E0D2EFED70C2EFCD703
:10004C000B2EFAD700000000FF0E836E0B0E0B6E0A
:10005C00260E0C6E5D0E0D6E0D2EFED70C2EFCD7E3
:0E006C000B2EFAD700000000DED7DDD7FFD73D
:020000040030CA
:0D000100220F0EFF0080FF0FC00FE00F4028
:00000001FF
