:1000000010EF02F00000000000EF00F00000000020
:0A0010000000000000000000F3D71C
:10001C000F0E0C6E470E0D6E0D2EFED70C2EFCD750
:06002C00000000001200BC
:06003200000000001200B6
:0A003800210E0D6E0D2EFED71200F2
:10004200086A096A100E0C6E01340836093604502B
:10005200085E0550D8A0053C095ED8B007D0045010
:1000620008260550D8B0053C0926D890003601363E
:060072000C2EEAD712007B
:1000780049BE02D0839E01D0838E49BC02D0839CA6
:1000880001D0838C49BA02D0839A01D0838A49B8B7
:1000980002D0839801D0838837B002D0848401D0FD
:1000A80084948482C2DF849249B602D0839E01D0B0
:1000B800838E49B402D0839C01D0838C49B202D08C
:1000C800839A01D0838A49B002D0839801D083886B
:1000D80037B002D0848401D084948482A6DF8492CD
:0C00E80037A002D097DF01D0A3DF120088
:1000F400466A050E465C0AE246504424E16E000E50
:100104004520E26E200EE66E462AF3D7465044247C
:10011400E16E000E4520E26EE66A4606465044242F
:10012400476E000E4520486E0A0E046E000E056EE2
:1001340042C000F043C001F082DF08C000F009C0F3
:1001440001F0300E002647C0E1FF48C0E2FF00C0C6
:10015400E6FF0A0E046E000E056E42C000F043C0B6
:1001640001F06DDF00C042F001C043F0000E011841
:1001740002E1000E001801E102D04606CFD71200BA
:0C018400379042C049F076DF378012004F
:100190000900F5CFE6FF0006FBE10106F9E11200D8
:1001A000969296949598959A959C959E849284940F
:1001B000839E839C839A839831DF30DF2FDF838A8D
:1001C0008388848236DF849229DF848232DF8492BE
:1001D00025DF84822EDF849221DF8398848229DFC9
:1001E00084921CDF848225DF8492839A838E8482AA
:1001F00020DF849213DF839E838884821ADF8492B7
:100200008398848216DF849209DF848212DF8492CD
:10021000838884820EDF849201DF8398848209DFE1
:100220008492838E838C838A8388848202DF849283
:06023000F5DE378012002C
:100236003E6A3F6A38C040F039C041F0800E391836
:10024600006E800E005C02E1000E385C0BE2010ECF
:100256003E6E000E3F6E38500008406E39C041F0C9
:10026600000E415640C042F041C043F03AC044F04F
:100276003BC045F03CDF060E3C6E000E3D6E000EA8
:10028600006E3D50005C02E13C50000819E23C5013
:100296003A24E16E3D503B20E26E010E3C5C006E5E
:1002A600000E3D58016E00503A24E96E01503B2085
:1002B600EA6EEECFE6FF010E3C5E000E3D5ADFD73A
:1002C6003AC0E1FF3BC0E2FF200EE66E3E503F1013
:1002D6001AE03C6A3D6A3C503A24E96E3D503B20A8
:1002E600EA6EEE50200A03E13C4A3D2AF4D7010E9D
:1002F6003C5E000E3D5A3C503A24E16E3D503B2098
:08030600E26E2D0EE66E1200FE
:10030E003A6A3A503824E96E000E3920EA6EEE52FF
:10031E000BE03A503824E96E000E3920EA6EEECF2B
:0A032E0042F029DF3A2AEDD7120051
:100338000FD0800E386E19D0C00E386E16D0940EBD
:10034800386E13D0D40E386E10D0800E386E0DD0A3
:100358003850010AEEE03850020AEEE03850030A3D
:10036800EEE03850040AEEE0F0D73904006E385059
:10037800002600C038F000C049F07ADE37903C6AA9
:100388003C503A24E96E000E3B20EA6EEE520BE038
:100398003C503A24E96E000E3B20EA6EEECF42F064
:0A03A800EDDE3C2AEDD7378012008D
:1003B2003A6A3B6A38C003F039C004F038C005F02D
:1003C20039C006F003C0E9FF04C0EAFFEE50200A7C
:1003D20004E13A503B1001E110D0010E3A6E000EDA
:1003E2003B6E03C0E9FF04C0EAFF05C0E1FF06C09F
:1003F200E2FFEECFE6FF054A062A03C001F004C081
:1004020002F0034A042A01C0E9FF02C0EAFFEE50EB
:0E041200000AD8E138C000F039C001F0120035
:10042000156A166A3A0E176E186A3A0E196E1A6A2B
:100430001B6A1C6A1D6A1E6AC26A0F0EC16EB0DE9C
:10044000020E0B6E040E0C6EBA0E0D6E0D2EFED744
:100450000C2EFCD70B2EFAD70000010E496E0CDED5
:10046000020E0B6E040E0C6EBA0E0D6E0D2EFED724
:100470000C2EFCD70B2EFAD700000C0E496EFCDDBB
:10048000020E0B6E040E0C6EBA0E0D6E0D2EFED704
:100490000C2EFCD70B2EFAD70000010E936E800EA7
:1004A0001C18006E800E005C02E1180E1B5CD8B0B8
:1004B000BBD0800E1E18006E800E005C02E13B0E69
:1004C0001D5CD8B097D0800E1618006E800E005CB0
:1004D00002E13B0E155CD8B073D0820E0C6EDD0EBF
:1004E0000D6E0D2EFED70C2EFCD700000000154A15
:1004F000162A15C038F016C039F0270E3A6E000ED5
:100500003B6E99DE270E386E000E396E52DF010EFB
:10051000386E0A0E396E170E3A6E000E3B6E0CDF07
:10052000800E1618006E800E005C02E10A0E155C4B
:100530000AE2010E386E0C0E396E270E3A6E000E6E
:100540003B6EFADE09D0010E386E0B0E396E270EA7
:100550003A6E000E3B6EF0DE1DC038F01EC039F062
:100560002F0E3A6E000E3B6E66DE2F0E386E000EBA
:10057000396E1FDF010E386E070E396E190E3A6E96
:10058000000E3B6ED9DE2F0E386E000E396EBFDEC8
:100590001BC038F01CC039F01F0E3A6E000E3B6EC7
:1005A0004ADE1F0E386E000E396E03DF010E386E04
:1005B000050E396E1F0E3A6E000E3B6EBDDE83D700
:1005C0001D4A1E2A156A166A386A396A270E3A6E5B
:1005D000000E3B6E30DE270E386E000E396EE9DEFF
:1005E000010E386E0B0E396E270E3A6E000E3B6E02
:1005F000A3DE5FD71B4A1C2A1D6A1E6A386A396A45
:100600002F0E3A6E000E3B6E16DE2F0E386E000E69
:10061000396ECFDE010E386E080E396E2F0E3A6E2F
:10062000000E3B6E89DE3BD71B6A1C6A1D6A1E6A80
:10063000156A166A386A396A1F0E3A6E000E3B6EEA
:10064000FADD1F0E386E000E396EB3DE010E386E05
:10065000050E396E1F0E3A6E000E3B6E6DDE1FD713
:02066000FFD7C2
:020000040030CA
:0D000100220D0EFF0080FF0FC00FE00F402A
:00000001FF
