:10000000C4EF01F00000000000EF00F0000000006D
:0A0010000000000000000000F3D71C
:10001C000F0E0C6E470E0D6E0D2EFED70C2EFCD750
:06002C00000000001200BC
:0A003200210E0D6E0D2EFED71200F8
:06003C00000000001200AC
:1000420042BE02D0839E01D0838E42BC02D0839CEA
:1000520001D0838C42BA02D0839A01D0838A42B8FB
:1000620002D0839801D0838826B002D0848401D044
:1000720084948482E2DF849242B602D0839E01D0CD
:10008200838E42B402D0839C01D0838C42B202D0D0
:10009200839A01D0838A42B002D0839801D08388A8
:1000A20026B002D0848401D084948482C6DF8492F4
:0C00B20026A002D0B2DF01D0BBDF12009C
:1000BE00086A096A100E0C6E0134083609360450AF
:1000CE00085E0550D8A0053C095ED8B007D0045094
:1000DE0008260550D8B0053C0926D89000360136C2
:0600EE000C2EEAD71200FF
:1000F4003F6A050E3F5C0AE23F503D24E16E000E6C
:100104003E20E26E200EE66E3F2AF3D73F503D2498
:10011400E16E000E3E20E26EE66A3F063F503D244B
:10012400406E000E3E20416E0A0E046E000E056EF7
:100134003BC000F03CC001F0C0DF08C000F009C0C3
:1001440001F0300E002640C0E1FF41C0E2FF00C0D4
:10015400E6FF0A0E046E000E056E3BC000F03CC0C4
:1001640001F0ABDF00C03BF001C03CF0000E011811
:1001740002E1000E001801E102D03F06CFD71200C1
:0C01840026903BC042F05BDF268012009A
:10019000969296949598959A959C959E849284941F
:1001A000839E839C839A839839DF38DF37DF838A85
:1001B0008388848243DF849231DF84823FDF8492AC
:1001C0002DDF84823BDF849229DF8398848236DFAF
:1001D000849224DF848232DF8492839A838E8482A5
:1001E0002DDF84921BDF839E8388848227DF8492A5
:1001F0008398848223DF849211DF84821FDF8492BC
:10020000838884821BDF849209DF8398848216DFCF
:100210008492838E838C838A838884820FDF849286
:06022000FDDE2680120045
:100226000900F5CFE6FF0006FBE10106F9E1120041
:10023600376A386A31C039F032C03AF0800E321867
:10024600006E800E005C02E1000E315C0BE2010ED6
:10025600376E000E386E31500008396E32C03AF0F3
:10026600000E3A5639C03BF03AC03CF033C03DF080
:1002760034C03EF03CDF060E356E000E366E000EC4
:10028600006E3650005C02E13550000819E2355028
:100296003324E16E36503420E26E010E355C006E7A
:1002A600000E3658016E00503324E96E015034209A
:1002B600EA6EEECFE6FF010E355E000E365ADFD748
:1002C60033C0E1FF34C0E2FF200EE66E375038102F
:1002D6001AE0356A366A35503324E96E36503420D2
:1002E600EA6EEE50200A03E1354A362AF4D7010EAB
:1002F600355E000E365A35503324E16E36503420C2
:08030600E26E2D0EE66E1200FE
:10030E000FD0800E316E19D0C00E316E16D0940EF5
:10031E00316E13D0D40E316E10D0800E316E0DD0E2
:10032E003150010AEEE03150020AEEE03150030A7C
:10033E00EEE03150040AEEE0F0D73204006E315098
:10034E00002600C031F000C042F074DE2690356AFF
:10035E0035503324E96E000E3420EA6EEE520BE077
:10036E0035503324E96E000E3420EA6EEECF3BF0AA
:0A037E0002DF352AEDD726801200B9
:100388000DEC02F02D6A2E6A2F6A306A0F0EC16ECC
:10039800956A836A010E946E8284F6DE0C0E426EB4
:1003A8004CDE010E316E010E326E150E336E000EEC
:1003B800346EA9DF82B001D0FDD782A001D0FDD76D
:1003C8002D4A2E2A000E2E1802E1090E2D1816E1CC
:1003D8002D6A2E6A2F4A302A2FC031F030C032F0F1
:1003E800270E336E000E346E22DF020E316E010EC0
:1003F800326E270E336E000E346E85DFDBD7FFD7E3
:10041A0010EE15F0110E006E010E016E080EF66E4A
:0E042A00040EF76E000EF86E13EC01F01200D7
:10040800436F6E7461646F7220526F746163616FC1
:0104180000E3
:020000040030CA
:0E000000010C191EFF8080FF0FC00FE00F40A3
:00000001FF
